:100000000C9434000C9451000C9451000C94510049
:100010000C9451000C9451000C940C030C9451005E
:100020000C9451000C9451000C9451000C9451000C
:100030000C9451000C9451000C9451000C945100FC
:100040000C9451000C9451000C946A030C945100D0
:100050000C9445030C9451000C9451000C945100E5
:100060000C9451000C94510011241FBECFEFD8E026
:10007000DEBFCDBF11E0A0E0B1E0E2EBF7E002C0EF
:1000800005900D92A23AB107D9F722E0A2EAB1E0B9
:1000900001C01D92AC3AB207E1F70E9484010C94B2
:1000A000D7030C94000084B7877F84BFE0E6F0E0BC
:1000B00088E1808381E6808383B7817F846083BF0A
:1000C00083B7816083BF7894089580E680937C0035
:1000D00087E880937A000895ECE7F0E09081987FBC
:1000E000892B8083EAE7F0E08081806480838081CF
:1000F00086FDFDCF80917900089580917C008F70FE
:1001000031F4ECE7F0E080818F5F808308958130E7
:1001100029F4ECE7F0E08081887F8083089520E86F
:100120002BB91816190684F420E030E04FEF53E2A3
:1001300064EF415050406040E1F700C000002F5F85
:100140003F4F2817390791F71BB80895861730F0ED
:100150008091A7019091A8010E948F000895833893
:1001600018F081E085B90EC09CE8980F9F3018F414
:1001700082E085B907C0843718F484E085B902C0ED
:1001800087E085B91092AA0108959091A301E92F03
:10019000F0E0E55DFD4F80839F5F1AF09093A3012F
:1001A00008951092A30108951F93CF93DF93EC015C
:1001B00010E007C0FE01E20FF31F80810E94C5001E
:1001C0001F5F212F30E0FE0101900020E9F73197F9
:1001D000EC1BFD0B2E173F0768F38091C00085FDD7
:1001E0001092C600DF91CF911F910895EF92FF9278
:1001F0000F931F93CF93DF93CDB7DEB760970FB602
:10020000F894DEBF0FBECDBF7C018B0180E48BB9BB
:100210002FE030E04FEF83ED90E34150804090407D
:10022000E1F700C0000021503109A1F787E091E01B
:100230000E94D4002FEF33ED40E321503040404086
:10024000E1F700C000009BE0E5E1F1E0DE0111967E
:1002500001900D929A95E1F782E29CE2A2E2B0E071
:100260008C879D87AE87BF87188ABE016F5F7F4FDF
:10027000CE0140960E948C03B701CE0140960E94A9
:100280008C03BE01645F7F4FCE0140960E948C03B9
:10029000B801CE0140960E948C0360E071E0CE016F
:1002A00040960E948C03CE0140960E94D40082E1C9
:1002B00090E02FEF33ED40E3215030404040E1F734
:1002C00000C000000197A9F71BB860960FB6F8941C
:1002D000DEBF0FBECDBFDF91CF911F910F91FF9079
:1002E000EF9008951092C50087E68093C40088EDD2
:1002F0008093C10086E08093C20060E271E08DE2ED
:1003000091E00E94F600089587E084B980EF8AB9F1
:100310008091A5019091A601019711F40E947201AC
:1003200084E68093A90183E090E09093A8018093F4
:10033000A7010E9465000E945300FFCFEF92FF9239
:100340000F931F93CF93DF93CDB7DEB7EA970FB626
:10035000F894DEBF0FBECDBF7C01062F142F80E4C2
:100360008BB922E130E04FEF83ED90E341508040C4
:100370009040E1F700C0000021503109A1F78CE363
:1003800091E00E94D4002FEF43ED80E321504040E4
:100390008040E1F700C000008AE491E00E94D400B0
:1003A0009FEF23ED40E3915020404040E1F700C033
:1003B00000008FEF93ED20E3815090402040E1F763
:1003C00000C000004FEF83ED90E34150804090402B
:1003D000E1F700C000000B3018F089E290E002C0A5
:1003E00088E290E0053608F001961B3008F001968F
:1003F000153608F001964AE050E0BE016F5F7F4F6E
:100400000E9497039EE0E3E7F1E0DE01139601907E
:100410000D929A95E1F7198ABE016D5F7F4FCE016B
:1004200041960E948C03BE016F5F7F4FCE014196C3
:100430000E948C0360E071E0CE0141960E948C0323
:10044000CE0141960E94D4002FEF43ED80E321506E
:1004500040408040E1F700C000009FEF23ED40E303
:10046000915020404040E1F700C000004AE050E0D9
:10047000BE016E5E7F4FC7010E9497031C8A4AE04F
:1004800050E0BE016C5E7F4F802F90E00E9497038A
:100490001D8A4AE050E0BE016B5E7F4F812F90E0E5
:1004A0000E94970380E2E1E8F1E0DE0156960190B8
:1004B0000D928A95E1F783E690E09FAB8EAB99AF02
:1004C00088AF1AAEBE016A5E7F4FCE01CA960E9407
:1004D0008C03BE016E5E7F4FCE01CA960E948C03D4
:1004E000BE016A5C7F4FCE01CA960E948C03BE019A
:1004F0006C5E7F4FCE01CA960E948C03BE01685C81
:100500007F4FCE01CA960E948C03BE016B5E7F4F67
:10051000CE01CA960E948C0360E071E0CE01CA96BB
:100520000E948C03CE01CA960E94D4008FEF93EDF7
:1005300020E3815090402040E1F700C0000080E0BF
:1005400091E00E94D4004FEF83ED90E34150804052
:100550009040E1F700C000001BB8EA960FB6F8948F
:10056000DEBF0FBECDBFDF91CF911F910F91FF90E6
:10057000EF900895ECE7F0E08081887F808380E150
:100580008BB92FEF81EE94E0215080409040E1F74D
:1005900000C0000080E00E946C008093AB020E94CB
:1005A0007D001BB82FEF83ED90E3215080409040F9
:1005B000E1F700C0000080E28BB981E00E946C008E
:1005C0008093AA010E947D001BB88091A5019091A3
:1005D000A601019751F44091AA016091AB0280916C
:1005E0000301909104010E949E018091AA010E9442
:1005F000AF006091A9018091AB020E94A6002FEF8D
:1006000083ED90E3215080409040E1F700C000006E
:1006100015B81BB8889508951F920F920FB60F92C8
:1006200011242F933F934F935F936F937F938F93F7
:100630009F93AF93BF93EF93FF9383B78E7F83BF57
:1006400080910501909106010196823091053CF060
:1006500010920601109205010E94BA0205C0909303
:100660000601809305018895FF91EF91BF91AF91AD
:100670009F918F917F916F915F914F913F912F91BA
:100680000F900FBE0F901F9018951F920F920FB6EC
:100690000F9211248F93EF93FF93E091A401809127
:1006A000A301E81779F0F0E0E55DFD4F80818093CC
:1006B000C6008091A4018F5F1AF08093A40102C04C
:1006C0001092A401FF91EF918F910F900FBE0F90A8
:1006D0001F9018951F920F920FB60F9211248F93AF
:1006E0009F93EF93FF938091A2019091C600E82F12
:1006F000F0E0E555FE4F90838F5F1AF08093A201E2
:1007000002C01092A201FF91EF919F918F910F90E3
:100710000FBE0F901F901895FB01DC010D9000207B
:10072000E9F7119701900D920020E1F70895453205
:10073000510520F4423010F00C94A203FB0110820A
:10074000CB010895BB274A3031F4992322F4BDE24E
:10075000909581959F4F0C94AE03BB27FB015527C5
:10076000AA27880F991FAA1FA41710F0A41B83950E
:100770005051B9F7A05DAA3308F0A95DA193009785
:1007800079F7B111B1931192CB010C94C703DC013D
:10079000FC01672F71917723E1F7329704C07C91B8
:1007A0006D9370836291AE17BF07C8F30895F894F4
:0207B000FFCF79
:1007B2000D0A000100950141542B43574D4F44450A
:1007C2003D330D0A0041542B43574A41503D22000C
:1007D20032617A3166747439726C6E6700746F6D4F
:1007E20061732773206950686F6E650041542B4313
:1007F20049504D55583D310D0A0041542B43495043
:1008020053544152543D342C22544350222C2269D9
:1008120066702E686F70746F2E6F7267222C38307C
:100822000D0A0041542B43495053454E443D342C4C
:1008320000474554202F7465737473657276657230
:100842002F64617461496E2E7068702F3F69643D38
:020852000000A4
:00000001FF
